:020000040800F2
:100000000010002031290008092800080B280008EA
:1000100000000000000000000000000000000000E0
:100020000000000000000000000000000D28000893
:1000300000000000000000000F2800081128000840
:10004000812900080000000081290008812900089A
:1000500081290008192800082928000833280008E9
:10006000000000008129000881290008812900087A
:10007000812900088129000881290008000000006A
:10008000812900080000000000000000812900080C
:10009000000000006128000871280008812900087C
:1000A00000000000812900080000000081290008EC
:1000B0000000000000000000000000000000000040
:1000C00010B5064C2378002B07D1054B002B02D02E
:1000D000044800E000BF0123237010BD7000002021
:1000E000000000000C590008044B10B5002B03D091
:1000F0000349044800E000BF10BDC04600000000F6
:10010000740000200C59000802B4714649084900E7
:10011000095C49008E4402BC7047C04603B4714676
:10012000490840004900095E49008E4403BC7047FD
:10013000002243088B4274D303098B425FD3030A26
:100140008B4244D3030B8B4228D3030C8B420DD339
:10015000FF22090212BA030C8B4202D312120902C7
:1001600065D0030B8B4219D300E0090AC30B8B4205
:1001700001D3CB03C01A5241830B8B4201D38B03B3
:10018000C01A5241430B8B4201D34B03C01A524158
:10019000030B8B4201D30B03C01A5241C30A8B429B
:1001A00001D3CB02C01A5241830A8B4201D38B0286
:1001B000C01A5241430A8B4201D34B02C01A52412A
:1001C000030A8B4201D30B02C01A5241CDD2C3099C
:1001D0008B4201D3CB01C01A524183098B4201D318
:1001E0008B01C01A524143098B4201D34B01C01A03
:1001F000524103098B4201D30B01C01A5241C3087B
:100200008B4201D3CB00C01A524183088B4201D3E9
:100210008B00C01A524143088B4201D34B00C01AD5
:100220005241411A00D20146524110467047FFE741
:1002300001B5002000F0F0F802BDC0460029F7D05B
:1002400076E7704703460B437FD4002243088B4276
:1002500074D303098B425FD3030A8B4244D3030B4D
:100260008B4228D3030C8B420DD3FF22090212BA12
:10027000030C8B4202D31212090265D0030B8B428E
:1002800019D300E0090AC30B8B4201D3CB03C01A78
:100290005241830B8B4201D38B03C01A5241430B53
:1002A0008B4201D34B03C01A5241030B8B4201D343
:1002B0000B03C01A5241C30A8B4201D3CB02C01AAE
:1002C0005241830A8B4201D38B02C01A5241430A26
:1002D0008B4201D34B02C01A5241030A8B4201D315
:1002E0000B02C01A5241CDD2C3098B4201D3CB01BC
:1002F000C01A524183098B4201D38B01C01A52416B
:1003000043098B4201D34B01C01A524103098B426E
:1003100001D30B01C01A5241C3088B4201D3CB0059
:10032000C01A524183088B4201D38B00C01A52413C
:1003300043088B4201D34B00C01A5241411A00D2EC
:1003400001465241104670475DE0CA0F00D0494255
:10035000031000D34042534000229C4603098B42C5
:100360002DD3030A8B4212D3FC22890112BA030A4D
:100370008B420CD3890192118B4208D389019211CF
:100380008B4204D389013AD0921100E08909C30954
:100390008B4201D3CB01C01A524183098B4201D356
:1003A0008B01C01A524143098B4201D34B01C01A41
:1003B000524103098B4201D30B01C01A5241C308B9
:1003C0008B4201D3CB00C01A524183088B4201D328
:1003D0008B00C01A5241D9D243088B4201D34B0043
:1003E000C01A5241411A00D20146634652415B1085
:1003F000104601D34042002B00D549427047634666
:100400005B1000D3404201B5002000F005F802BDAA
:100410000029F8D016E770477047C046D0400B005F
:10042000D1409C46203AD340184352426346934001
:1004300018437047F0B5CE469946030C9C4613040A
:1004400047461B0C1D000E0061460404240C80B5B9
:100450000700100C4B436543414360432C0CC0180C
:1004600024188C46A34203D980235B029846C444D7
:10047000494679435643230C2D042D0C89196344B6
:1004800024046019C918C0BCB946B046F0BDC046C6
:10049000F8B500270E0014000A4D39002B68D86209
:1004A000400858635F62280003F0F8FE300002F055
:1004B000AFFA3900280003F09DFF200002F0A8FAEF
:1004C000F8BDC0468C00002070B50D000C246C43B4
:1004D000110024181A00034B6400E05AFFF7D8FFFC
:1004E00070BDC0462459000810B50A2232210248C6
:1004F000FFF7CEFF10BDC046280A000084B010B53B
:1005000002900391049202A948220948059304F03D
:10051000AEFB002264210748FFF7BAFFFA21002250
:1005200005484900FFF7B4FF10BC08BC04B01847E9
:100530008C000020A21F0000B217000030B5FF247D
:10054000C9008C408A40034D80004359A3431343A4
:10055000435130BDE00000200023044A80021918F6
:100560000968D1500433242BF9D17047E0000020F2
:1005700037B5050002F0ECFA00230D48AD02036028
:1005800001A901334560836002F094FB041E0DD184
:10059000084B02201A592919002302F021FB0028D8
:1005A00004D10434242CF3D102F0E6FA37BDC0465E
:1005B000D4000020E000002010B51F20FFF7D8FF76
:1005C0001E20FFF7D5FF10BD70B50A4E0500202292
:1005D00000210948346804F0C6FA42233360002D34
:1005E00005D0220A01210020D2B2FFF7A7FFFFF7B2
:1005F000E3FF70BDE0000020E4000020024B18681B
:10060000000AC0B27047C046E0000020074B02005D
:100610001B6800201B0CDBB210B59A4205D00221EA
:10062000FFF78CFFFFF7C8FF012010BDE00000209E
:10063000024B1868000CC0B27047C046E0000020B2
:10064000431EDBB2020070B50020ED2B10D8012450
:10065000250053095901521A954006491B199B0060
:100660005A58154204D12A435A50FFF7A5FF2000DB
:1006700070BDC046E0000020014B186A80B2704790
:10068000E0000020012370B500201D00084C9A00F6
:10069000A15800222E009640314201D00130C0B254
:1006A0000132202AF6D10133082BF0D170BDC046AB
:1006B000E0000020014B1868000E7047E0000020A9
:1006C000074B02001B68002010B51B0E9A4205D094
:1006D0000321FFF733FFFFF76FFF012010BDC04676
:1006E000E00000200923044A044802CA013BDBB2AF
:1006F0004840002BF9D17047E00000202306224239
:1007000070B51E20FFF728FF0A4D1F202C68FFF749
:1007100023FF2B68E4B2DBB2422C05D1422B02D07E
:100720001E20FFF719FF70BD422BFCD00020FFF701
:100730004BFFF8E7E0000020032343430449CA18B5
:10074000CB5C90781B04184353781B021843704706
:100750009A59000870B51D0004AB16001A780023E2
:100760000400994205DA13005A1E9341494209B226
:10077000DBB2CA17E00FA14242411343DBB2002BA8
:1007800005D03420FFF7D8FF0400200070BDC8B2A8
:10079000FFF7D2FF0400002E03D03020FFF7CCFF7C
:1007A0000443002DF1D03120FFF7C6FF0443ECE7EE
:1007B000F0B5002787B005930CAB1B7805000393B9
:1007C0000C003B000492B9420ADA039B4C4224B26B
:1007D0000137002B04D0E317C20F84425341DBB230
:1007E000290000206943E2178C4242411343DBB2E7
:1007F00083420AD03330FFF79FFF04003420FFF715
:100800009BFF0443200007B0F0BD29002000FFF744
:1008100019FD0600002F05D0039B002B02D03320CA
:10082000002E02D030001030C0B2FFF785FF00224A
:1008300007006E43A11B1300280009B20092FFF7C6
:1008400089FF3C00049B0443002B03D03020FFF7BA
:1008500073FF0443059B002BD4D03120CFE7F0B5C4
:100860000500002687B005930CAB1B7807000393A7
:100870000C00330045430492B1420ADA039B4C4218
:1008800024B20136002B04D0E317EA0FAC425341E7
:10089000DBB2290000207943E2178C424241134326
:1008A000DBB2834206D04930FFF746FF0600300036
:1008B00007B0F0BD29002000FFF7C4FC0290002E15
:1008C00006D0039B002B03D003003220002B02D064
:1008D00002982030C0B2FFF72FFF0022029B0600D3
:1008E0005D43611B1300380009B20092FFF760FFFF
:1008F000049B0643002B03D03020FFF71DFF064367
:10090000059B002BD3D03120FFF716FF0643CEE71F
:10091000002370B5020001241800074D1100194191
:10092000214204D02600E95C01398E403043013376
:100930000E2BF3D170BDC0468A5A000870B59024C2
:100940000500E40520000022402102F0BBFA2A0045
:100950002000802102F0B6FA01224021200002F09E
:10096000B1FA70BD70B50500902001222021C005AC
:1009700002F0A8FA902001224021C00502F0A2FA5C
:10098000902001228021C00502F09CFA90200022D4
:100990002021C00502F096FA0B24012628002041F0
:1009A0003040FFF7CBFF013CF8D2902001222021FC
:1009B000C00502F087FA70BD70B5050090200122D5
:1009C0002021C00502F07EFA902001224021C005BE
:1009D00002F078FA902001228021C00502F072FA1C
:1009E000902000222021C00502F06CFA0120FFF7C0
:1009F000A5FF0020FFF7A2FF0120FFF79FFF0020C7
:100A0000FFF79CFF0020FFF799FF0020FFF796FFFC
:100A10000020FFF793FF0020FFF790FF0020FFF773
:100A20008DFF002401262800E0403040FFF786FFBC
:100A30000020FFF783FF0020FFF780FF0134002034
:100A4000FFF77CFF202CEED1902001222100C00571
:100A500002F038FA70BD000010B5024B1860FFF7C5
:100A6000ABFF10BD0401002010B5034B1B681843F9
:100A7000FFF7F2FF10BDC04604010020034B10B584
:100A80001B6883431800FFF7E7FF10BD0401002037
:100A900010B50D48FFF766FF0C48FFF763FF0C48E1
:100AA000FFF760FF94200001FFF75CFF0948FFF7A4
:100AB00059FF0948FFF756FF91200001FFF752FF49
:100AC0000020FFF7C9FF10BD020800004208000027
:100AD00006080000180800000C08000070B5164D4C
:100AE0002B78002B27D09620400001F091FF802129
:100AF00090204901C005012402F0DEF926000028FB
:100B000001D00024FE3602210C4802F0D5F900285D
:100B100002D102260134E4B20121084802F0CCF9E6
:100B2000002802D103260134E4B2012C03D1044B86
:100B30001E7000232B7070BD0100002000040048CF
:100B40000000002010B5204C2378012B01D101F0CA
:100B5000A7F82378022B01D101F050FA2378032B58
:100B600001D101F02FFD0020FFF776FF174B1B7816
:100B70002370012B0AD13520FFF7DEFDFFF76CFF54
:100B8000FA20800001F044FF01F050F82378022B96
:100B90000AD13620FFF7D0FDFFF75EFFFA20800074
:100BA00001F036FF01F024FA2378032B0AD1372015
:100BB000FFF7C2FDFFF750FFFA20800001F028FF89
:100BC00001F0E4FC10BDC04604030020000000203A
:100BD00010B5084C2378012B01D100F075FF237864
:100BE000022B01D101F0F0F92378032B01D101F0A0
:100BF0009DFC10BD040300200821084B1A888A437D
:100C00001A801A8878318A431A801A8840398A43B0
:100C10001A801A8830398A431A80704706030020E8
:100C20000821F8B5234B00241A880A4203D01A88F9
:100C300001348A431A8080211A880A4204D01A8813
:100C40008A431A800222144340211A880A4204D09F
:100C50001A888A431A800422144310211A880A42EF
:100C600004D01A888A431A8008231C43002C00D120
:100C7000F8BD0025230001222B41134216D00E4F50
:100C8000EEB23B78934202D1300000F013FB3B7888
:100C9000022B02D1300001F017F93B78032B02D16F
:100CA000300001F083FA0123AB409C430135042D51
:100CB000E0D1DBE706030020040300200C4A10B556
:100CC0001388034313800B4B184202D001220A4BB6
:100CD0001A70C30502D50122084B1A70000505D50C
:100CE000074B1B78012B01D100F0D6FD10BDC0468B
:100CF000060300200310000001000020080300206C
:100D000004030020064B10B5984202D100F0A8FE63
:100D100010BD044B9842FBD100F0E4FDF8E7C0465B
:100D2000D801002090010020421ED2B20300002012
:100D3000DE2A06D92033DBB20E3098428041404291
:100D40000130704710B5102494B02C22002109A85E
:100D500003F009FF22000021684603F004FF002190
:100D6000220004A803F0FFFE022308A80893013B19
:100D70000B930C9402F02EFC011E01D072B6FEE71C
:100D800007230190029003906846009302F046FE0C
:100D9000002801D072B6FEE721230690079004A830
:100DA000049302F0CFFE002801D072B6FEE714B023
:100DB00010BD0000F0B5C1B001F008FEFFF7C2FFA2
:100DC0001422002139A803F0CEFE8021D84BC9039C
:100DD0005A6990200A435A615A6900250A408021C5
:100DE0003492349A5A6989020A435A615A6903242F
:100DF0000A4080213592359A5A69C9020A435A61DC
:100E00005B6900220B403693E221C005369B02F05D
:100E100059F8C84839A939943A943B9501F094FFA0
:100E20009020092339A9C00539933A943B9501F0E4
:100E30008BFF90200126E22339A9C0058424399331
:100E40003A963B953C9501F07FFFDB23A403BA481B
:100E500039A939933A943B9601F076FF8823902084
:100E60005B0139A9C00539933A943B9601F06CFFB8
:100E700080231B0139939020882339A95B03C00587
:100E80003A933B9501F060FF2A002900052001F00C
:100E9000E3FD052001F00AFE2A002900062001F0EA
:100EA000DBFD062001F002FE29002A00072001F0E8
:100EB000D3FD072001F0FAFDA04CA14B20002360D8
:100EC000A04BA5606360E66025616561A561E56191
:100ED000256202F08BF90100A84201D072B6FEE74C
:100EE000200002F011FB011E01D072B6FEE72000C7
:100EF00002F030FB061E01D072B6FEE701000822A8
:100F000037A803F030FE1C22310039A803F02BFE75
:100F10008D4D8E4B80272B60D12328006E60AE60F4
:100F2000EB602E61AF6103F091F8002801D072B63A
:100F3000FEE73790389037A9280003F05FFA0028C1
:100F400001D072B6FEE760233A903B903D900422B8
:100F5000280039A9399303F0DDF8061E01D072B6D6
:100F6000FEE7280001F0DAFB1C22310039A803F06B
:100F7000FAFD774D774B28002B60774B6E60AE60A3
:100F8000EB602E61AF6103F039F8002801D072B632
:100F9000FEE7280003F05AF8021E01D072B6FEE701
:100FA00060233A903B903D9039A92800399303F093
:100FB000B1F8061E01D072B6FEE72800962501F0B2
:100FC000ADFB6648664B6D01036046608660C56098
:100FD00006614661876103F011F8002801D072B6FE
:100FE000FEE7604E604B3000336000237360B360F7
:100FF000336173618033B361F56002F0FFFF031E5C
:1010000001D072B6FEE75948594A836002609622C1
:10101000C360120203618361C36103628023426083
:1010200008221B0242614262436303F0D9FB051EA2
:1010300001D072B6FEE7FFF763FBFFF7DFFAFFF7B9
:1010400073FE3390FFF724FD2F20FFF775FB2B0075
:1010500007002A00012110200095FFF7A9FB384363
:10106000FFF7FAFC3A4F38224249684603F0FFFD89
:101070000FCFFFF743FA9620C00001F0C9FC3920DA
:10108000FFF75AFB0700FFF7B9FA2B0001B22A005D
:1010900010200095FFF78CFB3843FFF7DDFC96200E
:1010A000C00001F0B5FC210044221031684603F075
:1010B000DEFD0FCC01F058FA4822310020A8224C66
:1010C00003F0D5FD482225490EA803F0D0FD3822B3
:1010D0002949684603F0CBFD0FCC00F079FD339B26
:1010E000002B04D00122254B1A70FFF72BFD0124A1
:1010F000339B002B0BD1FFF793FDFFF7EFFC204A4A
:101100001E4B12781B789A4201D0FFF71BFD1D4B36
:101110001A78002A03D000221A70FFF759FD00F058
:1011200033F80028E4D02100200002F037FADFE78E
:10113000001002400014004800040048B0020020E3
:10114000005400400E090020680200200004004006
:101150002002002000200040FFFF0000D8010020F6
:101160000044014090010020004801400801002097
:1011700000380140300200207802002000000020EA
:1011800004030020080300200120024B1B78584074
:101190007047C0468503002073B5FFF72FFAFFF7AD
:1011A000C3FD002810D03920FFF7C6FA0400FFF76E
:1011B00025FA002201B2130010200092FFF7F8FA7E
:1011C0002043FFF749FC73BD2A4D2B78002B06D036
:1011D0000600032B0FD1284B1B78002B0BD1274B7C
:1011E0001A78002A3AD1264B1978130000920A2067
:1011F000FFF735FB06002B78012B05D0032B10D110
:101200001D4B1B78012B0CD13820FFF795FA1B4B97
:1012100006431B78002B26D1FFF72EFAFFF778FB49
:1012200006432B78022B05D0032B15D1124B1B78CC
:10123000022B11D13A20FFF77FFA104B06431C789E
:10124000002C12D1FFF7F4F92300220001B2009420
:101250000A20FFF7ADFA06433000B2E70022094941
:1012600013000092C3E70848D8E700226321130067
:101270000092EDE70300002002000020110300208F
:101280006A040020E7030000FF03000010B504001B
:101290000800FFF751FAFFF7DFFBFFF725F996206B
:1012A000400001F0B5FB024B1C70FFF775FF10BD4D
:1012B0000300002070B505000024A84E072230006E
:1012C000A74903F03DFCA74BF571315D1A5D9142D2
:1012D00000D030E10134082CF7D10122A24B2000CC
:1012E0001A70FFF7B9FB1423A02203212000FFF797
:1012F000EBF81423A02203212000FFF7E5F81423C4
:10130000A02203210720FFF7DFF81423A0220321E6
:101310000720FFF7D9F88820FFF79EFB1423A022AF
:1013200003210520FFF7D0F8F02214230321052024
:101330005200FFF7C9F81423A02203210520FFF76C
:10134000C3F8A0221423032152000720FFF7BCF8A2
:101350008648FFF781FB1423A02203210720FFF713
:10136000B3F8A0221423032107205200FFF7ACF8A2
:10137000A0221423032120005200FFF7A5F8142314
:10138000A02203212000FFF79FF87948FFF764FBB4
:101390001423A02203212000FFF796F81423A02293
:1013A00003210720FFF790F81423A0220321072030
:1013B000FFF78AF81423A02203210520FFF784F801
:1013C0006C48FFF749FBA02214230321052052009B
:1013D000FFF77AF81423A02203212000FFF774F806
:1013E000A022142303210A205200FFF76DF81423D2
:1013F000A02203212000FFF767F85F48FFF72CFBCE
:101400001423A02203210720FFF75EF8A022142353
:10141000032107205200FFF757F8F022142303217D
:1014200005205200FFF750F81423A02203212000CA
:10143000FFF74AF85148FFF70FFB1423A0220321BE
:101440000720FFF741F81423A02203210720FFF70C
:101450003BF81423A02203210520FFF735F8A02232
:101460001423032152000520FFF72EF84448FFF70C
:10147000F3FAA0221423032120005200FFF724F8DE
:101480000321F022080014235200FFF71DF8142353
:10149000A02203212000FFF717F81423A022032124
:1014A0000720FFF711F83748FFF7D6FA1423A022D8
:1014B00003210520FFF708F81423A02203210720A9
:1014C000FFF702F8032114230800A022FEF7FCFF17
:1014D000A0221423032192002000FEF7F5FF2A48E2
:1014E000FFF7BAFAA0221423032120005200FEF7CE
:1014F000EBFF032114230800A022FEF7E5FF0321E0
:10150000A022080014235200FEF7DEFFA0221423BD
:10151000032100205200FEF7D7FF0321A02208007C
:1015200014239200FEF7D0FF1848FFF795FAFA202F
:10153000800001F06DFA4C21002D0AD04D21012DC3
:1015400007D04E21022D04D0032D05D14F21104B81
:101550001D702800FFF79AFE70BDC04609030020E9
:101560000A030020985A0008110300208808000090
:101570008818000088380000887800008878040007
:10158000887844008878C4008C78C400AC78C400A3
:101590006C04002010B5FFF775F8014B187010BDF2
:1015A0006A04002010B5FFF767F810BD43095A011F
:1015B000821A012070B50B4E0B4D0C4C36789B00F7
:1015C000904019595A59002E08D0140004435C5118
:1015D0000A431040431E9841C0B270BD0D00054340
:1015E0001D51F5E7130300203403002014030020ED
:1015F00073B50400F8281AD10024A34B33201C70C3
:10160000FFF79AF8FFF728FA3C2364220421200010
:10161000FEF75AFF20003C2364220421FEF754FF0A
:10162000642001F0F5F90822984B1A7027E0F028A1
:1016300026D14920FFF780F8FFF70EFA1E2350222B
:1016400004210020FEF740FF1E2350220421022027
:10165000FEF73AFF1E23502204210220FEF734FF3A
:101660001E23502204210020FEF72EFF0120FEF74A
:10167000ABFFFA20800001F0CBF901F023FA73BD33
:10168000FEF7BCFFFFF750FB06002000FFF74CFB06
:101690000500012EF3D0022E1BD13C20FFF74CF8A1
:1016A000002521B22B002A00060000951020FFF72C
:1016B0007FF83043FFF7D0F928002823C822032100
:1016C000FEF702FF2823C82203212800FEF7FCFEB4
:1016D000A9E7012800D0A3E02000FEF7B1FF002811
:1016E000CDD0FFF75FFF6A4B1D706A4B1B78032B51
:1016F00001D1664A1370FFF74FFD2823B42202215F
:101700000420FEF7E1FE2823B42202210520FEF783
:10171000DBFE2823B42202210720FEF7D5FEB422E7
:101720002823032100205200FEF7CEFE02212823A9
:101730000800B422FEF7C8FE2823B42202210420A8
:10174000FEF7C2FE87222823022105209200FEF721
:10175000BBFE2823B42202210720FEF7B5FE282372
:10176000B42202210920FEF7AFFE2823B422022171
:101770000A20FEF7A9FEB4222823032105205200E7
:10178000FEF7A2FE2823B42202210920FEF79CFEC8
:101790002823B42202210A20FEF796FEB422282331
:1017A000032100205200FEF78FFEB42228230321DC
:1017B00002205200FEF788FEB422282303210420D1
:1017C0005200FEF781FE2823B42202210420FEF7F6
:1017D0007BFE2823B42202210520FEF775FE282374
:1017E000B42202210720FEF76FFE8722282303215F
:1017F00000209200FEF768FE2823B4220321022075
:10180000FEF762FE2823B42203210420FEF75CFECB
:10181000B4222823032105209200FEF755FE2EE76F
:10182000002800D02BE72000FFF7C0FE002800D1E1
:1018300025E72000FEF704FF002800D11FE7FFF78F
:10184000A9FE134B1D70134B1B78032B01D10F4ABC
:101850001370FFF7A1FC0A238C2203210420FEF75A
:1018600033FE0A238C2203210420FEF72DFE0A23D7
:101870008C2203210420FEF727FED2220A23032113
:101880000B205200C9E7C0466B0400206C04002006
:10189000020000200300002010B50C4C2278D3B2C7
:1018A000002A12D10A4A1278002A0ED0094A0A48A0
:1018B00013600A4A1370962203685201DA62084ADA
:1018C0005A6202F075FA0123237010BD85030020CF
:1018D0008603002080030020900300208403002062
:1018E0009FF6000070B5184D2B78002B16D0174CC2
:1018F00023781F2B13D880219020154D09012B68C8
:10190000C0055B002B6001F0D7FA424250412B68C2
:101910001843286023780133DBB2237070BD0D4873
:1019200002F06CFA0C4A1378092B09D8084B11788D
:1019300018680A4B8900C85013780133DBB2137062
:1019400000232B70E6E7C0468503002084030020B7
:1019500080030020900300207C030020540300201B
:101960000A21F8B5002549420F222B000326012445
:101970008C4607005100CF403900314002291CD16C
:10198000210091400B439BB2013AF2D21C0ADB4387
:10199000DBB29C4210D1002D0ED1FEF72FFEA042EB
:1019A0000AD03020FEF7C8FEFFF75EF80122064B92
:1019B00020001A70FFF71CFEF8BD67460F41274252
:1019C000E2D12500E0E7C0466904002070B5072396
:1019D000012402260A0085001A41200028432242E1
:1019E00001D028003043013BF4D270BD70B5FEF742
:1019F00005FE040001000020FFF7E8FFE143C9B243
:101A0000FFF7E4FF0024D122104B114D1860114B59
:101A100004211C702B682800DA62693A9A635C62C0
:101A200002F03CFC012000F0F3FF0421280002F04A
:101A30007FFC9622084852010368DA625C6202F079
:101A4000B7F90122054B1A7070BDC046880300200B
:101A5000200400208C030020D80300208D030020E8
:101A600070B5144D2B78002B0CD0134C13482378F1
:101A70001F2B08D9042102F05BFC114802F0BEF9CB
:101A800000232B7070BD1F220E4B21781B68521A49
:101A9000D340DB070AD50022036804215A6202F012
:101AA000FDFB23780133DBB22370EBE7042102F066
:101AB0003FFCF6E78D0300208C030020200400206B
:101AC000D803002088030020364B70B51A78002A0E
:101AD00006D0002230201A70FEF72EFEFEF7CEFF51
:101AE000314C2378002B06D0002331202370FEF7E1
:101AF00023FEFEF7C3FF2D4A1378002B12D12C4A88
:101B00001378002B1AD0013B13702A4D2B78002B31
:101B100021D0013B2B70284A1378002B2ED0013B9B
:101B2000137070BD13782549013B9B0058581378FA
:101B3000013BDBB21370FFF713FFDCE703211170E9
:101B40001F490A780132D2B2022A00D813000B7062
:101B5000FFF722FBD9E7FEF751FDFFF7E5F80F236A
:101B6000002800D1DB1831202B70FEF7E5FDFEF7D1
:101B70007BFF01232370FFF739FFCCE7322111707F
:101B800001221C000F49087842400A700E480F4994
:101B9000002A04D0C4500433202BF9D1C1E7CA5025
:101BA000F9E7C04669040020680400207C03002097
:101BB0006C0400206B04002012030020540300205A
:101BC000020000201303002034030020140300202F
:101BD00084B070B5482604900591069204A932009D
:101BE0000F48079303F043F80E4D3200280016A962
:101BF00003F03DF80C4C320028A9200003F037F820
:101C0000280002F0D5F8280002F0F8F8200002F0D1
:101C1000CFF8200002F0F2F870BC08BC04B01847FE
:101C200020040020D80300209003002010B52022BB
:101C300000210324124802F096FF002120221148BF
:101C400002F091FFFFF7A6FCFFF7ACFC00220E4B61
:101C50001C700E4B1A70FFF79FFA0D4B1C70FEF7AD
:101C6000CDFCFFF761F80F23002800D1DB18094AEB
:101C700013703222084B1A70084B313A1A7010BD9B
:101C80003403002014030020030000200200002081
:101C90006C0400206B040020120300208603002047
:101CA0000022014B1A7070478603002037B5041ECE
:101CB00010D13820FEF740FD0500FEF7B9FC2300E7
:101CC00001B222000A200094FEF772FD2843FEF7BD
:101CD000C3FE37BD01280DD13B20FEF72DFD0022AC
:101CE000124B040019780A2013000092FEF760FDE1
:101CF0002043ECE74A20022C11D03D20032C0ED0CB
:101D00003E20042C0BD03F20052C08D04020062C70
:101D100005D04720072C02D0082C03D14820FEF71D
:101D20000BFDD4E7092CD4D10020D0E770040020AB
:101D300070B500F067FE040000F07CFE4440FEF742
:101D4000D1FC444000F07CFE444000F07FFE0425BE
:101D5000604002F077FD00246D4202F0A3FD064BC7
:101D6000064AE318104002D50138284301300134F7
:101D70001870632CF1D170BD720400200300008044
:101D8000012210B5064B00201A70FFF78FFF05489F
:101D900000F03EFE0220FFF789FFFEF72DFF10BD89
:101DA0006D040020DC050000F8B51B4E1B4D327899
:101DB0002988042A09D90C2A2CD9DC231E2A06D901
:101DC00078233E2A03D9283B01E0D2235B008B42D3
:101DD00000D02B800024124B1F5D0134F81CC0B2D0
:101DE000FFF764FF0F4B2A88D95D0F4BE4B2D85D33
:101DF0000023FEF769FB0020FEF72EFE322000F0E4
:101E000007FE3378A342E6D2FEF7F6FE0422074B24
:101E10001A70F8BDA023D9E7700400206E040020DA
:101E200072040020AA5A0008A55A000804000020E5
:101E3000F7B506000125154A154B525D1B789A42ED
:101E40001FD1C820800000F0E3FD124B14229B5DDF
:101E500005240193104B01989F5D00233900FEF784
:101E600033FB142000F0D4FD0023462239000198F2
:101E7000013CFEF729FBE4B2142000F0C9FD002C60
:101E8000F2D10135052DD6D1F7BDC046A05A0008C4
:101E900070040020A55A0008AA5A000810B50720AF
:101EA000FFF704FF0023074C180022001900FEF77B
:101EB0000BFB0120FFF7FAFE200000F0A9FDFFF761
:101EC0005FFF10BDDC05000070B5364D04002B78B7
:101ED000012B18D10020FEF7BFFDFEF705FB022302
:101EE00000222B70304B1A70304B1A70944201D084
:101EF000032C01D1FFF71CFFC820800000F088FDF3
:101F0000FFF752FF0BE0022B09D1FEF775FE264DBD
:101F1000274B2A789B5CA34202D0FFF7BFFF70BD1E
:101F2000E01CC0B2FFF7C2FE224B1A88224B195D9B
:101F3000224B185D0023FEF7C7FA0020FEF78CFD48
:101F4000322000F065FD194E2B7832780133DBB278
:101F500001322B70934220D1002233702A70FEF799
:101F600067FB3378984202D21800FEF74FFB3378B4
:101F7000632B0ED10820FFF799FE114800F048FDB1
:101F80000120FFF793FE0E4800F042FDFFF7F8FE38
:101F9000C5E72000FFF74CFFAEE70422094B1A709B
:101FA000BDE7C0466D0400207104002070040020CD
:101FB000720400206E040020AA5A0008A55A0008E6
:101FC000DC0500000400002010B5074B1B78022B35
:101FD00005D1064A1378002B02D0013B137010BDC7
:101FE000FFF75CFFFBE7C0466D0400200400002003
:101FF00010B5FFF79DFEFFF7C3FE10BD7047000050
:10200000064B074A1380074A1380074A1380074A82
:102010001380074A1380074A13807047FF7F000030
:10202000E4040020E2040020E0040020DE0400209C
:10203000DC040020DA04002037B54B4C2378012B58
:1020400011D14A4B1B78002B3DD1494B0020185E23
:1020500000283CDB00220123010000920A20FEF749
:10206000FEFBFEF7F9FC2378022B0FD100223F4B39
:102070001B78934234D13F4B0021595E01230092DB
:102080000A200022FEF7EBFBFEF7E6FC2378002B8C
:1020900018D10120384A117848401070334A12781C
:1020A000002833D0002A24D1314B0020185E0028AC
:1020B00023DB00220123010000920A20FEF7CFFB60
:1020C000FEF7CAFC37BD012B47D12C4BBEE70A21D6
:1020D000FEF7B8F801230093002301B21A00BDE710
:1020E000012B01D1264BC7E71100022BC6D1254B8E
:1020F000C2E7012A2CD1214BD7E70A21FEF7A2F82B
:1021000001230093002301B21A00D6E7194B002ADD
:1021100005D01B4B012A02D0022A02D1194B002004
:10212000185E0A21FEF78EF801000A2000254143BF
:102130002B002A0009B20095FEF791FB040028004D
:10214000FEF7FAFA84434220FEF7F6FA2043B7E797
:102150001800022AADD10C4BA7E70020022B00D0BB
:1021600078E7094B72E7C046D6040020D50400206A
:10217000E4040020DE040020D8040020E004002055
:10218000DA040020DC040020E204002010B5C0B214
:10219000FEF7D2FAFEF760FC962000F039FC03222D
:1021A000014B1A7010BDC046D704002010B50400C2
:1021B000FEF79AF9002C14D11E4B1A78012A05D18A
:1021C000422001321A70FFF7E1FF10BD022A02D14E
:1021D00043201C70F7E7002AF7D1013241201A7022
:1021E000F1E7012C12D1144B1A78002A02D14520B4
:1021F0001C70E8E7012A03D1013246201A70E2E799
:10220000022AE2D1002244201A70DCE7022C03D11A
:10221000FFF7F6FE4920D6E7032CD6D1064B1878F7
:10222000044B00011B781843C0B2FEF749FA4B205B
:10223000C9E7C046D6040020D504002070B590251B
:10224000FA24ED05280000220221640000F03AFE85
:10225000200000F0DDFB28000122022100F032FE08
:10226000200000F0D5FB70BDF0B5A64B89B01A7800
:10227000002A03D000221A70FFF7E0FF7123FA262C
:1022800005AD2B70A04BB60003932A0001237021EB
:102290000398009601F008F8041E00D01CE106AF78
:1022A00001233A0070210398009601F09DF8041E66
:1022B00000D011E118223B781340934200D19BE0FB
:1022C0001B23A8702B802A00702103980096183BCE
:1022D00000F0EAFF041E00D0FEE0052000F098FBAD
:1022E00003233A0070210398009601F07DF8041E44
:1022F00000D0F1E0052000F08BFB50222B785242F9
:1023000013432B707B782A006B70BB787021AB7005
:1023100003980323009600F0C7FF041E00D0DBE003
:10232000052000F075FB1C23AC702B802A00702167
:1023300003980096193B00F0B7FF041E00D0CBE0D5
:10234000052000F065FB03233A00702103980096F6
:1023500001F04AF8041E00D0BEE0052000F058FB52
:1023600050222B78524213432B707B782A006B70DB
:10237000BB787021AB7003980323009600F094FFA4
:10238000041E00D0A8E0052000F042FB1E23AC7024
:102390002B802A007021039800961B3B00F084FFDD
:1023A000041E00D098E0052000F032FB564D0323B8
:1023B0003A0070212800009601F016F8041E00D0A3
:1023C0008AE0052000F024FB502305AA11785B4227
:1023D0000B43137002AB5B7C7021537002AB9B7C90
:1023E000280093700323009600F05EFF041E73D153
:1023F000FA20400000F00CFB444B02AA938100231A
:10240000FA259373404BAD00039370210323039887
:10241000009505AA00F048FF041E5DD1642000F07D
:10242000F7FA8023652706AE3370337800957F2B4B
:1024300055D8062332007021039800F0D5FF041E02
:102440004AD1112302AA9B181A785B7830481B02E4
:1024500013435BBAF2789BB21B0213431B095D4323
:102460002C4B290D19800027C35F0D008B4203DC24
:10247000294FDB19002B00D1058028480027C35FB6
:102480008B4203DB24495B18002B00D10580337994
:102490001202134372791B021A43FA231203120B1E
:1024A000DB0053431B0DF53B1D4A1E48FF3B19B291
:1024B00011800025425F9A4203DC174D5219002A11
:1024C00000D1018018480025425F9A4203DB124B7D
:1024D000D218002A00D10180200009B0F0BD0123EC
:1024E00032007021039800F07FFF041EF4D1013FF9
:1024F0000220FFB200F08CFA002F00D095E70124F3
:10250000EAE7C04605000020E8040020AC330000E4
:10251000DA040020DE0400200180FFFFDC0400203C
:10252000E4040020E0040020E204002010B50C4A7E
:102530001378002B02D0013B137010BD03231370DE
:10254000FFF792FE002808D00122064B49201A709E
:10255000FEF7F2F8FEF780FAEFE7FFF76DFDECE724
:10256000D70400200500002084B010B5029003912C
:1025700004920548542202A9059302F078FB10BC8E
:1025800008BC04B01847C046E804002010B5FFF7A7
:1025900037FDFEF78FF80F22064B02401A7001221A
:1025A000054B00091870054B1A700022044B1A7075
:1025B00010BDC046D6040020D50400200500002030
:1025C000D7040020902010B500220221C00500F0A1
:1025D00079FC10BD01210A4B82B09A690A439A61C5
:1025E0009A690A4080210092009ADA6949050A43F3
:1025F000DA61DB690B400193019B02B07047C04672
:102600000010024010B5040088B01422002103A875
:1026100002F0A9FA134B22689A4220D18022124C70
:1026200092026369902013436361636903A91340B5
:102630000193019BC023DB000393122304930F3B00
:102640000693C0050133079300F07EFB8022E36907
:1026500092031343E361E36913400293029B08B0C2
:1026600010BDC0460054004000100240074B0268F5
:1026700082B09A4208D10221054BDA690A43DA6135
:10268000DB690B400193019B02B0704700040040DE
:10269000001002401FB503681C4A93420BD18021F1
:1026A0001B4B4900DA690A43DA61DB690B4001938D
:1026B000019B05B000BD174A934212D18021144BF3
:1026C00089029A6915200A439A6100229B690B408E
:1026D00002931100029B00F0BFF9152000F0E6F90B
:1026E000E7E70D4A9342E4D18021094BC9029A6978
:1026F00016200A439A6100229B690B400393110044
:10270000039B00F0A9F91620E8E7C046002000402E
:1027100000100240004401400048014010B5040090
:1027200088B01422002103A802F01DFA2368184A79
:10273000934215D18021174BC9025A6916480A43A2
:102740005A615B690B400193019B202303931E3B5D
:102750000493013B079303A900F0F6FA08B010BDFB
:102760000E4A9342FAD180210A4B89025A6990207D
:102770000A435A615B69C0050B400293029B102318
:1027800003930E3B04930233079303A9E4E7C04687
:1027900000040040001002400004004800200040F7
:1027A00010B5040088B01422002103A802F0DBF960
:1027B000124B22689A421FD18021114BC9019A699C
:1027C00090200A439A619A69C0050A4080210192CB
:1027D000019A5A6989020A435A615B690B40029364
:1027E000029B084B03A9039302230493013306932E
:1027F000023B079300F0A8FA08B010BD0038014072
:102800000010024004800000FEE7FEE770477047BA
:1028100010B500F0EBF810BD10B5012000F058FB2A
:10282000022000F055FB10BD10B5082000F050FB51
:1028300010BD10B5102000F04BFB402000F048FB0D
:10284000802000F045FB8020400000F041FB80200C
:10285000000100F03DFB8020400100F039FB10BD7D
:1028600010B5024801F0E8FA10BDC046D8010020BA
:1028700010B5024801F0E0FA10BDC04690010020FA
:102880000120704710B502F0C5F91623036001203E
:10289000404210BD10B502F0BDF916230360FEE7FB
:1028A00070B50E0014000025A54201DB200070BDAC
:1028B00000E000BF70550135F6E770B50E0014005A
:1028C0000025A54201DB200070BD705D00E000BF67
:1028D0000135F6E701204042704780239B0100202C
:1028E0004B60704701207047002070470B490C4A2D
:1028F0000300521A0B4910B50868002801D10A4894
:1029000008600868C318934206D902F083F90C23C3
:1029100003600120404210BD0B60FCE70004000092
:10292000001000203C050020B80600207047000081
:102930000D488546FFF7FAFF0C480D490D4A002364
:1029400002E0D458C4500433C4188C42F9D30A4A64
:102950000A4C002301E013600432A242FBD302F0D0
:102960005FF9FEF727FAFEE70010002000000020C4
:1029700070000020D05B000870000020B40600202A
:10298000FEE7000070B50500FA200D4B80001978B5
:10299000FDF7CEFB0B4C01002068FDF7C9FB00F0F2
:1029A0009FF804000120002C09D1032D07D802381C
:1029B0002200290000F050F82000034B1D6070BD7C
:1029C0000C00002008000020100000201023064A00
:1029D00010B5116803200B431360FFF7D3FFFFF717
:1029E000F9FD002010BDC04600200240034A044B00
:1029F00011681B785B1813607047C04640050020C3
:102A00000C000020014B18687047C04640050020AC
:102A100070B50400FFF7F6FF0500631C02D0044BFD
:102A20001B78E418FFF7EEFF401BA042FAD370BDFD
:102A30000C000020014B18687047C046ACF7FF1F20
:102A4000014B18687047C046B0F7FF1F014B18686C
:102A50007047C046B4F7FF1F10B5FF2403220B00D8
:102A600021000240D20091409B012340C943934082
:102A700000280ADBC0240B4A800880008018A400CC
:102A800002590A401343035110BD0F221040083869
:102A9000054A800880008018C26911401943C1614D
:102AA000F2E7C04600E100E000ED00E0002805DBB1
:102AB0001F2318401E3B8340014A13607047C046E5
:102AC00000E100E0BFF34F8F034B044ADA60BFF32D
:102AD0004F8FC046FDE7C04600ED00E00400FA0558
:102AE0008022431E5204012093420DD2C021074A86
:102AF00007485360036A09061B021B0A0B43036263
:102B000000200723906013607047C04610E000E08B
:102B100000ED00E00C4A1021D06830B503000B40F6
:102B2000084205D002230948C4692343C3610B004E
:102B30000420D168014205D00121044C0343E5691A
:102B40002943E161D36030BD0020024048050020E8
:102B5000064B00201A69120606D5054A5A60054A36
:102B60005A6018690006C00F7047C0460020024036
:102B700023016745AB89EFCD8023034A002011690B
:102B80000B4313617047C0460020024070B504003B
:102B9000FFF738FF01260500104BDA68324211D1E9
:102BA0002022D968114200D0DA60D96810220800CA
:102BB0001040114202D1DB685B0708D5FFF7AAFF7E
:102BC000012004E0621CE8D0002C01D1032070BD7C
:102BD000FFF718FF401BA042DED9F7E700200240B4
:102BE000F0B585B003931E4B009102921A7E04004B
:102BF0000220012A31D001221A481A76FFF7C6FFB7
:102C0000002827D12600012C03D00426022C00D155
:102C100026000024124B0193029803992201FDF72C
:102C2000FDFB00220127019B0F4DDA612B69009A01
:102C30003B432B6163009B1880B218800948FFF763
:102C4000A5FF2B69BB432B61002803D1E419E3B234
:102C50009E42E1D80022024B1A7605B0F0BDC04674
:102C60004805002050C30000002002400022064B0F
:102C7000DA61064B043219690A431A614022196964
:102C80000A431A617047C0464805002000200240F0
:102C90000022064BDA61064B023219690A431A61B7
:102CA0004022586119690A431A617047480500209B
:102CB00000200240F8B5214F04003B7E0E000220A8
:102CC000012B0CD001233B7623681D48012B12D128
:102CD000FFF75CFF002803D0012000233B76F8BDFE
:102CE000FFF7C4FF1648FFF751FF0421154A136987
:102CF0008B431361F1E7FFF749FF0028ECD1012373
:102D00005B42336065680130A36862689B029B1870
:102D1000AB42E2D92800FFF7BBFF0948FFF736FFB7
:102D20000221084A13698B431361002801D03560E2
:102D3000D3E78023DB00ED18E6E7C0464805002016
:102D400050C30000002002400023F0B587B00A689D
:102D50001400DC4001D107B0F0BD012514009D40F6
:102D60002C4000942A4200D198E04A685F009446C3
:102D70000322644622400324BC40E4430194541ED1
:102D8000012C2ED88668019C2640CC68BC40344378
:102D9000846044680126AC4325006446240934401D
:102DA0009C402C434460C568019C25408C68BC4015
:102DB0002C43C460022A16D107250F261D40AD0002
:102DC000AE40DC08A40004190294246A039626008D
:102DD000039CA64334000E69AE402643029C266243
:102DE00001E0032ADFD1BA400468019D25402A434F
:102DF000C02402606246A40222424FD00125284A24
:102E000090279469FF052C43946192699C082A409D
:102E10000592059A234AA400A4180F2202351D40EA
:102E2000AD00AA40A66896430022B8420CD01E4FBF
:102E30000132B84208D01D4F0132B84204D01C4FB5
:102E40000332B84200D1023AAA4067463243A26038
:102E5000184A009C9668009DE4433543FF0201D464
:102E60003500254067469560D668009D3543BF0212
:102E700001D4350025406746D5605668009D35432E
:102E8000BF0301D435002540674655601568009E94
:102E90002E43FF0301D425402E001660013356E770
:102EA00000100240000001400004004800080048F3
:102EB000000C00480004014000690840431E98418E
:102EC000C0B27047002A01D0816170478162FCE77F
:102ED000044B10B55A69104202D05861FDF7EEFE5E
:102EE00010BDC0460004014003689A69920701D5ED
:102EF00000229A6201229969114202D199690A431A
:102F00009A61704730B5039C006823431204890519
:102F10001A43890D054B45680A43640D234352004B
:102F20009D4352082A43426030BDC046FF63FF0301
:102F3000F7B5150002680E00916910230F00040018
:102F40001F40002019420DD00700D3610190236873
:102F500020219A690A425FD1002F31D00427012035
:102F6000019B1F43802225685200AB69134202D0A7
:102F70000120EA6107438022D200134203D00821D6
:102F800001200F43EA6180229200134249D00223BC
:102F9000EA611F432000FFF7A7FF6B68224A012068
:102FA00013406B60636C20223B4363642300413316
:102FB0001A7022000023423240341370237032E032
:102FC000721CC5D0FFF71EFD401BB04201D8002E79
:102FD000BDD1220023684232586811789A69C9B27B
:102FE00012040BD58022D201104207D1202905D02E
:102FF00059680A435A60FFF705FD0500202223683F
:103000009B691342A3D1FFF7FDFC401B1928F5D99A
:103010002023012701939AE7002F9FD12022DA6114
:103020009CE70028B6D1FEBD00E800FEF8B504001C
:103030000D001600022723689B693B4201D0002047
:1030400021E0320029002000FFF772FF002819D18B
:103050006B1CF0D0FFF7D6FC801BA84201D8002DD6
:10306000E9D12368996902230A001A401942E2D182
:103070002021636C0B436364230040344133197097
:103080005A7022700120F8BDF8B504000D00170039
:103090001E0023689B692B405B1B5A425341BB4275
:1030A00001D0002026E031002000069AFFF740FF03
:1030B00000281ED1731CECD0FFF7A4FC069BC01A9D
:1030C000B04201D8002EE4D123689B692B405B1BE2
:1030D0005A425341BB42DCD12022636C13436364E8
:1030E000230041331A70220000234232403413700F
:1030F00023700120F8BDF8B504000E00170020254C
:1031000023689B692B4201D000201DE03A0031006A
:103110002000FFF70DFF002815D1FFF773FCC01B3F
:10312000B04201D8002EEBD123689B691A002A40D7
:103130002B42E5D1636C2B4363642300403441335D
:103140001D705A7022700120F8BD0000F7B505000F
:10315000002404272026009101922B689B693B42A2
:1031600001D1002C01D02000FEBD019A2800009959
:10317000FFF7DEFE2B6804009A6932420FD1631E0E
:103180009C41E4B2FFF73EFC019BC01A009B9842B1
:1031900001D8002BE1D1002C19D00124DDE7002853
:1031A00011D19A691022996911420ED0DA616F64C7
:1031B000DE615A680C490A405A602B0041331E7088
:1031C0005870013B18700124DCE76864DAE72B686B
:1031D0009B693B42C1D16B6C33436B642B00413321
:1031E0001E70013B1C70D8E700E800FE70B50400BB
:1031F0000120002C4ED0250041352B78DAB2002B6F
:1032000005D12300403320001A70FFF7FBF9242377
:1032100001212B702368E0681A68A6688A431A6047
:103220001D4962680A401A619A681C490A409A60FE
:10323000012807D18022120232439A605A68184846
:10324000024009E08422120232439A600228F5D13A
:1032500080225868120102435A605868114A02439A
:103260005A60DA6800200A40DA60616922690A431C
:10327000A16909020A43DA60216AE2690A431A6015
:10328000012219680A431A60202360642B702063AE
:103290004234207070BDC046FFFFFFF0FF7FFFFF8C
:1032A000FFF7FFFF00800002F0B5060085B0029234
:1032B00003934136337804000F000220202B14D1F1
:1032C000230040331A78012A0FD001221A70FFF729
:1032D00099FB80210500009019230122200009029A
:1032E000FFF7D2FE002802D0012005B0F0BD212357
:1032F00033702300102242331A70029B60646362B1
:10330000039B60636385638DFF2B34D88023628DBC
:103310009B0492B232492285002A0FD0029E206877
:103320003678013A8662029892B201306062608D0E
:103330002285013880B201326085D2B20091390015
:103340002000FFF7DFFD638D2A0020000A99002B83
:1033500015D1FFF7D0FE0028C6D120212368214DCA
:10336000D9615A682A405A602300403441331970A9
:1033700058702070B9E78023FF225B04CAE7FFF78B
:1033800055FE0028B0D1636A226819780133916232
:103390006362638D228D013B9BB26385013A638D2D
:1033A00092B22285002BCED0002ACCD180212000E1
:1033B0000A9B0095FFF768FE002800D094E7638D14
:1033C000FF2B05D9FF22802322855B040090B6E7FE
:1033D0008023628D9B0492B22285D2B20090AEE728
:1033E0000020008000E800FEF0B5070087B00391E0
:1033F0000492059341373B7804000220202B14D11E
:10340000230040331A78012A0FD001261E70FFF7DF
:10341000F9FA8021050000901923320020000902EA
:10342000FFF732FE002802D0012007B0F0BD2223B2
:103430003B702700123B42373B70049B6064636221
:10344000059B60636385628D2D4BFF2A20D92685FD
:103450000093802332005B0420000399FFF752FDA4
:10346000638D2A0020000C99002B19D1FFF743FE31
:103470000028D9D120212368224DD9615A682A40D9
:103480005A60230040344133197038702070CCE703
:10349000628D92B22285D2B2009380239B04DBE737
:1034A000FFF754FE0028BFD123685A6A636A1A7076
:1034B000636A228D01336362638D013A013B9BB2E3
:1034C0006385638D92B22285002BC9D0002AC7D1B3
:1034D000802120000C9B0095FFF7D6FD0028A3D18A
:1034E000638DFF2B05D9FF22802322855B0400908A
:1034F000B2E7628D92B22285D2B20090CDE7C0468B
:103500000024008000E800FEF0B504004134227879
:1035100003000F000220D6B2202A18D11D0040352A
:103520002A78012A13D0242222701B68233A1968B2
:103530000748914319601968014000201960196813
:103540003943196019680A431A6026702870F0BD63
:10355000FFEFFFFF0200F0B5413214780300E5B23F
:103560000220202C17D11C0040342678012E12D0C6
:10357000223010701B6823381E68074F86431E6078
:103580001E6809023E4031431960196808431860FB
:10359000002015702070F0BDFFF0FFFF10B5032470
:1035A0000A4A1368A343034313600422084B1869B3
:1035B00002431A61012905D130BF04211A698A43E7
:1035C0001A6110BD40BF20BF20BFF6E70070004069
:1035D00000ED00E0F0B5040085B0002845D0036898
:1035E000DB072FD423689B0700D581E023681B07E6
:1035F00000D5BCE023685B0700D5DFE02368DB066D
:103600001AD562690423B44D012A00D048E1696BE0
:1036100002270B436B636B6B1A436A63FFF7F2F984
:1036200006006B6B3B4200D133E1F8216A6BA36962
:103630008A43DB0013436B63236A002B00D057E1FE
:1036400000202AE00C22A44D6B681340042B06D006
:103650006B681340082B0AD16B68DB0307D52B6816
:103660009B03BFD56368002BBCD1012015E06368C4
:10367000012B14D180232A685B0213432B60FFF7D0
:10368000C1F980270600BF022B683B42AAD1FFF791
:10369000B9F9801B6428F7D9032005B0F0BD002BD1
:1036A00016D12B688D4A802713402B602B688C4ADB
:1036B000BF0213402B60FFF7A5F906002B683B42C1
:1036C00000D18FE7FFF79EF9801B6428F6D9E3E766
:1036D000052B05D180232A68DB0213432B60C9E741
:1036E0002B687E4A13402B602B687D4A1340C5E748
:1036F0000C22794D6B68134206D06B681340082B7F
:1037000010D16B68DB030DD42B689B0702D5E368EF
:10371000012BAAD1F8212A6823698A43DB001343CD
:103720002B6063E7E2680123002A0FD02A68022792
:1037300013432B60FFF766F906002B683B42E9D183
:10374000FFF760F9801B0228F7D9A5E72A6802274E
:103750009A432A60FFF756F906002B683B4200D1D6
:1037600044E7FFF74FF9801B0228F6D994E7E26996
:103770000123594D002A10D06A6A022713436B6255
:10378000FFF740F906006B6A3B4200D032E7FFF7D3
:1037900039F9801B0228F6D97EE76A6A02279A4324
:1037A0006A62FFF72FF906006B6A3B4200D121E7FE
:1037B000FFF728F9801B0228F6D96DE78022002147
:1037C000454D5205EB690091134208D1EB69134353
:1037D000EB61EB6913400393039B01230093802764
:1037E000404E7F0033683B4215D0A368012B22D1A5
:1037F0002A6A13432B62FFF705F9022706002B6A9A
:103800003B423FD0009B012B00D0F7E6EB69364AE4
:103810001340EB61F2E633683B433360FFF7F2F8A5
:10382000019033683B42E0D1FFF7ECF8019BC01AEE
:103830006428F6D930E70122002B14D12B6A022725
:1038400093432B622B6A033293432B62FFF7DAF820
:1038500006002B6A3B42D5D0FFF7D4F8234B801BE0
:103860009842F6D918E7052B05D1296A013B0B438D
:103870002B622B6ABDE72B6A934304222B622B6ACF
:103880009343B7E7FFF7BEF8184B801B9842B6D9B1
:1038900002E7FFF7B7F8801B022800D8C1E6FBE675
:1038A000053203D16A6B9A436A63BEE66A6B0227EC
:1038B000134301226B636B6B93436B63FFF7A2F8B7
:1038C00006006B6B3B4200D1B6E6FFF79BF8801B0E
:1038D0000228F6D9E0E6C04600100240FFFFFEFFD6
:1038E000FFFFFBFF00700040FFFFFFEF88130000A9
:1038F0000C21344D6A680A40082A47D0324A022B0C
:1039000032D12B68802713402B60FFF77BF806002D
:10391000BF042B683B4221D10F22EB6A80269343E0
:10392000E26AB6041343EB62616AA36A6A680B43F6
:1039300026490A4013436B6080232A685B041343C3
:103940002B60FFF75FF804002B68334200D077E666
:10395000FFF758F8001B0228F6D99DE6FFF752F84A
:10396000801B0228D5D997E62B68802613402B6050
:10397000FFF748F80400B6042B68334200D15FE635
:10398000FFF740F8001B0228F6D985E6012B00D18D
:103990006BE680226868616A5202EB6A02408A42E2
:1039A00000D062E60F221340E26A934200D05CE648
:1039B000F0239B031840A36AC01A431E9841C0B26B
:1039C0006BE6C04600100240FFFFFFFEFFFFC2FF94
:1039D0000C2270B50C4D6B681A40082A11D10F20CB
:1039E0000A499A0C02408C5CEA6ADB0307D5084955
:1039F0000240895C0748FCF79BFB604370BD0648AA
:103A0000FBE70448FAE7C04600100240D75A000816
:103A1000C75A000800127A0000093D00F7B50400FB
:103A20000E00002801D10120FEBD0122374D2B6878
:103A300013408B421CD32268930722D4D2072FD481
:103A400001232A681A40B24251D82368304D5B07DF
:103A500054D4FFF7BDFF6B682E4A1B061B0FD35CC7
:103A60002D49D84008600320FEF78CFF0020DBE7DB
:103A70002B6893430B432B602B6813408B42D2D1AE
:103A8000D9E72349530704D5E0234868DB00034303
:103A90004B60F0204B688343A06803434B60CDE745
:103AA0001B4F62683B68012A19D19B03BBD50321D8
:103AB0007B688B4313437B60FEF7A4FF01900C23CC
:103AC0007A681A4063689B009A42B9D0FEF79AFF61
:103AD000019BC01A114B9842F1D90320A4E7022A96
:103AE00002D19B01E3D49EE79B07E0D49BE72A68C1
:103AF0009A432A602A681A42A7D094E76B68084A5A
:103B00001340E26813436B60A3E7C0460020024005
:103B100000100240B75A0008080000208813000077
:103B2000FFF8FFFF044B054A5B6805495B055B0F27
:103B3000CB5C1068D840704700100240080000209D
:103B4000AF5A0008F0B50368050085B0DB032BD53C
:103B500080220021384C5205E3690091134208D1BC
:103B6000E3691343E361E36913400393039B012378
:103B700000938027314E7F0033683B4222D0216A78
:103B8000C022080092006B682D4E104011422BD1CC
:103B9000236A6A68334013432362009B012B03D1DD
:103BA000E369284A1340E3612A68D30706D5032056
:103BB00021490B6B8343A86803430B63920633D4FC
:103BC00000200FE033683B433360FEF71BFF01909A
:103BD00033683B42D3D1FEF715FF019BC01A64281E
:103BE000F6D9032005B0F0BD13408342D0D0802227
:103BF000236A206A1900520202432262226A124892
:103C00003140024022622162DB07C1D5FEF7FAFE95
:103C100007000222236A1342BAD1FEF7F3FE0B4BD0
:103C2000C01B9842F5D9DCE71021034A136B8B4384
:103C3000E9680B431363C3E70010024000700040C3
:103C4000FFFCFFFFFFFFFFEFFFFFFEFF88130000F9
:103C500070B50124036A026AA243026273224468B7
:103C6000856995430A681543022293438A68134382
:103C7000114A904205D0114EB04202D0104EB042CF
:103C800013D10826B343CE6833430426B34390428E
:103C900005D00A4A904202D0094A904205D1094A09
:103CA0008E6922404C69344314434A6844608561FC
:103CB0004263036270BDC046002C014000440140D5
:103CC00000480140FFFCFFFF70B5174A056A036A10
:103CD0001340036273234268C4699C430B681C430E
:103CE000124B1D408B681B022B43114DA8420ED175
:103CF000104D1D40CB681B022B430F4D2B400F4D29
:103D00004E6915408A69324312012A4305E00C4D81
:103D1000A842F4D00B4DA842F1D042604A68C46179
:103D2000C263036270BDC046FFFEFFFFFFFDFFFFE1
:103D3000002C0140FFF7FFFFFFFBFFFFFFCFFFFF5E
:103D4000004401400048014030B5124A046A036A49
:103D5000114D134003624368C2692A400D682D0269
:103D600015430E4A14408A68120322430C4CA042A9
:103D700005D00C4CA04202D00B4CA04204D10B4CFD
:103D80001C404B699B01234343604B68C56103643E
:103D9000026230BDFFEFFFFFFF8CFFFFFFDFFFFF81
:103DA000002C01400044014000480140FFBFFFFFDC
:103DB00001000300012010B53D310C78E2B28442CD
:103DC00015D1001808701B68D9681143D9600949DA
:103DD0008B4202D008498B420AD107219A680A40D7
:103DE000062A03D0012219680A431A60002010BD78
:103DF0001968F9E7002C0140000400400121036824
:103E000010B5DA688A43DA601C6A074A144206D1A0
:103E10001C6A064A144202D11A688A431A600123B6
:103E20003D300370002010BD11110000440400005B
:103E300070477047704770470222036870B5DD68AD
:103E40001E69040016420DD015420BD0053A1A61C6
:103E5000043202779B699B0700D171E0FFF7E9FF0D
:103E60000023237704231E4211D01D420FD00522C8
:103E7000236852421A61073222779A69C0239B0055
:103E800020001A4262D0FFF7D4FF002323770823D3
:103E90001E420FD01D420DD00922236852421A61E2
:103EA0000D322277DB6920009B0755D0FFF7C1FF59
:103EB0000023237710231E4211D01D420FD0112260
:103EC000236852421A6119322277DA69C0239B00B3
:103ED00020001A4246D0FFF7ACFF002323770123CE
:103EE0001E4208D01D4206D0022223685242200002
:103EF0001A61FCF707FF80231E4208D01D4206D03E
:103F000081222368524220001A6100F0A0FA402367
:103F10001E4208D01D4206D0412223685242200092
:103F20001A61FFF788FF20231E4208D01D4206D0E9
:103F300021222368524220001A6100F087FA70BDE6
:103F4000FFF776FF2000FFF775FF89E7FFF770FFA7
:103F50002000FFF76FFF98E7FFF76AFF2000FFF7E9
:103F600069FFA5E7FFF764FF2000FFF763FFB4E7F1
:103F70001C4A10B50368904202D01B4CA04208D1E5
:103F80007024A3434C68234390420BD0164CA042AC
:103F900008D0164CA04205D0154CA04202D0154CBA
:103FA000A04203D1144C1C40CB6823438024A3437C
:103FB0004C69234303608B68C3620B688362904241
:103FC00005D00B4B984202D00A4B984201D10B69A5
:103FD0000363012242610369134202D003699343E0
:103FE000036110BD002C014000040040002000408F
:103FF0000044014000480140FFFCFFFF70B5040091
:104000000120002C21D025003D352B78DAB2002B81
:1040100005D123003C3320001A70FEF73BFB02233E
:104020002B702068211DFFF7A3FF22000123002031
:10403000463213704534083A137053709370D3703E
:1040400013715371937123702B7070BD70B50400A0
:104050000120002C21D025003D352B78DAB2002B31
:1040600005D123003C3320001A70FEF7FFFA02232B
:104070002B702068211DFFF77BFF22000123002009
:10408000463213704534083A137053709370D370EE
:1040900013715371937123702B7070BD102270B522
:1040A000056A036A164C934303624268836923409E
:1040B0000C6824021C4320239D438B681B012B4367
:1040C000104DA8420FD18025AB431E00CB68403D68
:1040D0001B013343AB430C4D4E6915408A69324393
:1040E00092002A4305E0094DA842F4D0084DA842A9
:1040F000F1D042604A6884618263036270BDC04649
:10410000FF8CFFFF002C0140FFF3FFFF0044014044
:1041100000480140F8B506003C361500327803002F
:104120000C000220012A0AD001383070082D3FD03F
:1041300006D8002D19D0042D29D000233370F8BDE6
:104140000C2DFAD11D682800FFF7FEFD8023EA69D7
:104150001B011343EB61EB691D4A1340EB612369BB
:10416000EA691B021343EB610FE01D682800FFF7AB
:104170006FFD0823AA6913430422AB61AB69934323
:10418000AB61AB6922691343AB610020D5E71D68C1
:104190002800FFF783FF8023AA691B011343AB614B
:1041A000AB690B4A1340AB612369AA691B02EAE7BA
:1041B0001F683800FFF788FD0422FB691D43FD617D
:1041C000FB699343FB61FB6922691343FB61DCE7F5
:1041D000FFFBFFFF1F2310B5012419408C408A40CC
:1041E000036AA3430362036A1A43026210BD00001C
:1041F0000200030010B5002909D13E331B78013BB2
:10420000581E8341DBB20120002B0AD010BD0429C7
:1042100001D13F33F2E7082901D14033EEE74133C2
:10422000ECE70223100000291DD13E300370146812
:1042300001222000FFF7CEFF144A94421DD0144BF8
:104240009C421AD0134B9C4217D0134B9C4204D172
:104250000722A3681340062B03D0012322681343CF
:1042600023600020D2E7042901D13F30DEE708298E
:1042700001D14030DAE74130D8E78023616C1B027E
:104280000B4363649442E3D0DFE7C046002C014057
:1042900000440140004801400004004010B5FFF711
:1042A000A7FF10BD70B505680022040028000E00AD
:1042B000FFF790FF184B194A9D4205D0184B9D42BD
:1042C00002D0184B9D420AD12B6A134207D1296AAA
:1042D000154B194203D16B6C14490B406B642B6A6C
:1042E000134207D12A6A104B1A4203D101222B68CC
:1042F00093432B600123002E03D13E340020237012
:1043000070BD042E01D13F34F8E7082E01D14034AE
:10431000F4E74134F2E7C046002C014011110000DF
:10432000004401400048014044040000FF7FFFFFBB
:1043300010B5FFF7B7FF10BD70B504000E000829D7
:1043400011D005D8002909D004290CD0012070BD56
:104350000C29FBD102681021D36802E00221026817
:10436000D3688B4302E02268D368B3432568D360E7
:10437000310000222800FFF72DFF184B184A9D42FC
:1043800005D0184B9D4202D0174B9D420AD12B6A93
:10439000134207D1296A154B194203D16B6C14499A
:1043A0000B406B642B6A134207D12A6A0F4B1A42E7
:1043B00003D101222B6893432B600123002E03D1EC
:1043C0003E3400202370C2E7042E01D13F34F8E7C9
:1043D000082E01D14034F4E74134F2E7002C0140CB
:1043E0001111000000440140004801404404000055
:1043F000FF7FFFFF10B5FFF79FFF10BD70B50400F2
:1044000002223C34257803001000012D19D01D0034
:1044100070263D352A701B6858689A68B0430E684C
:10442000304358600748834202D00748834204D192
:104430008020496882430A439A60012300202B7040
:10444000207070BD002C0140000400407047704790
:1044500030B5EFF31084012282F310880168124D09
:104460000B682B400B6084F31088EFF3108482F309
:10447000108801688B6893438B6084F31088036E07
:1044800093420AD1EFF3108183F31088102402685D
:104490001368A343136081F310882022031DDA6799
:1044A00000230366836630BDDFFEFFFF70B50400A6
:1044B0002569A26801682A436569C3692A430868B7
:1044C000384D1A43284002430A604A683648256A34
:1044D0000240E06802434A60A26988682A43334D7B
:1044E000284002438A600321314A126B0A4080212E
:1044F000013A0902022A49D82E48805C8B4221D118
:10450000082841D8FBF700FE4440084005404040E1
:104510000900FFF75DFA3DE0274B61685B00480842
:104520001818FBF705FE0200244B103A9A422BD8CC
:104530000F23020000079A4393B2400F22680343FF
:10454000D36029E008281FD8FBF7DEFD131E051EE7
:10455000181E1E1E1B00184861684B081818FBF730
:10456000E7FD0200154B103A9A420DD82368D86037
:1045700012E0FFF7D7FA00280ED0EDE7FFF728FA90
:10458000F9E780200002E7E7012006E08B42F0D146
:10459000FFF7C8FA031EC0D100200023A366E3661C
:1045A00070BDC046F369FFFFFFCFFFFFFFF4FFFFC1
:1045B00000100240E75A000800127A00EFFF0000E6
:1045C000436A30B51A0706D50168284C4A6822406C
:1045D000446B22434A60DA0706D50168244C4A68D6
:1045E0002240846A22434A609A0706D50168214C1A
:1045F0004A682240C46A22434A605A0706D50168C5
:104600001D4C4A682240046B22434A60DA0606D5F4
:1046100001681A4C8A682240846B22438A609A0699
:1046200006D50168164C8A682240C46B22438A6012
:104630005A0610D50168134D4A68046C2A4022437B
:104640004A6080225203944205D14A680E4C2240AF
:10465000446C22434A601B0606D502680B49536826
:104660000B40816C0B43536030BDC046FF7FFFFFA2
:10467000FFFFFDFFFFFFFEFFFFFFFBFFFFEFFFFF61
:10468000FFDFFFFFFFFFEFFFFFFF9FFFFFFFF7FFD2
:10469000F7B504000D00170000932268D3692B4082
:1046A0005B1B59424B41BB4201D0002025E0089BD7
:1046B0000133F3D0FEF7A6F9009BC01A089B98427D
:1046C0002CD8002B2AD023681A685207E5D52A0077
:1046D0004021403A8A43E0D0DA690826110031408F
:1046E000019132420AD020001E62FFF7B1FEA319E9
:1046F000DE670023012078342370FEBD8022D96953
:1047000012011142C9D01A622000FFF7A1FE230056
:1047100020220833DA67019B783423700320ECE70A
:10472000030073B5002504000833DD67FEF76AF95E
:10473000236806001B681B071DD58021264B2A0015
:104740000093890303002000FFF7A2FFA84212D0C4
:10475000EFF31081012383F310888020226813680F
:104760008343136081F310882023E3670320002331
:104770007834237076BD250008CD1B685B0723D5F0
:104780008021154B0022009320003300C903FFF75E
:104790007FFF002818D0EFF31080012282F31088E9
:1047A00021680E4E0B6833400B6080F31088EFF3E6
:1047B000108082F3108821688B6893438B6080F3AC
:1047C00010882023EB67D1E720230020E367EB6705
:1047D00020666066CBE7C046FFFFFF01DFFEFFFFFC
:1047E00010B5041E01D1012010BDC36F002B04D1F0
:1047F000020078321370FDF7D3FF242301212268D1
:10480000E36713688B431360636A002B02D02000B8
:10481000FFF7D6FE2000FFF749FE0128E3D023680A
:1048200007495A6820000A4008215A609A688A435A
:104830009A60012219680A431A60FFF771FFD3E7F3
:10484000FFF7FFFF114B70B51D6804002B6B002BA9
:1048500016D1182000F07CFA021E286304D14621EC
:104860000B4B0C4800F00CFA0B4B002103600B4B78
:1048700043600B4B83600B238381012010615161E6
:1048800000222B6B1C615A6170BDC04620000020C5
:10489000EA5A0008015B00080E33CDAB34126DE616
:1048A000ECDE0500164B10B51C68236B002B16D1EF
:1048B000182000F04DFA021E206304D15221114B42
:1048C000114800F0DDF9114B00210360104B4360EB
:1048D000104B83600B238381012010615161246B95
:1048E0000D4A206961690D4BFBF7A4FD01220023ED
:1048F00080185941206161614800400810BDC046E0
:1049000020000020EA5A0008015B00080E33CDABFE
:1049100034126DE6ECDE05002D7F954C2DF45158D8
:10492000002310B504000360436083608181436607
:10493000C281036143618361190008225C3000F089
:1049400012F90B4B246263620A4BA3620A4BE362C7
:104950000A4B23630A4B9C4205D00A4B9C4202D06F
:10496000094B9C4203D12000583000F07DF910BD66
:10497000A94A0008D14A0008094B0008354B000835
:1049800068050020D00500203806002010B5034A35
:104990000349044800F06CF810BDC0461400002024
:1049A000D54F00082400002041680B4B10B50400CF
:1049B000994201D000F00EFBA168084B994202D049
:1049C000200000F007FBE168054B994202D020006F
:1049D00000F000FB10BDC04668050020D005002097
:1049E0003806002010B5094B094A04211A6009480D
:1049F0000022FFF795FF012209210748FFF790FFEA
:104A0000022212210548FFF78BFF10BDA0060020EF
:104A10008D49000868050020D005002038060020D8
:104A200010B5024800F021F910BDC046A9060020CB
:104A300010B5024800F01AF910BDC046A9060020C2
:104A400010B50400FFF7ECFF236A002B02D0FFF73C
:104A5000EFFF10BD044B2362044B1B68002BF6D103
:104A6000FFF7C0FFF3E7C046A9490008A0060020F1
:104A7000F7B51400002600900191A5686768013F12
:104A800004D52468002CF8D13000FEBDAB89012B81
:104A900008D90E22AB5E013304D029000098019B97
:104AA000984706436835EAE770B50C000E25495F64
:104AB00000F088F8002803DB636D1B18636570BD88
:104AC000A389024A1340A381F9E7C046FFEFFFFF25
:104AD000F8B51F008B8905000C001600DB0505D515
:104AE0000E23C95E0022022300F058F8A389054A6C
:104AF00028001340A38132000E23E15E3B0000F04A
:104B000075F8F8BDFFEFFFFF70B50C000E25495F8B
:104B100000F044F8A389421C03D1054A1340A38145
:104B200070BD802252011343A3816065F8E7C0463F
:104B3000FFEFFFFF10B50E23C95E00F01DF810BD9A
:104B400010B5884206D800239A4208D0CC5CC454E1
:104B50000133F9E78B189842F5D2013A00D210BD23
:104B60008B5C8354F9E703008218934200D17047AD
:104B700019700133F9E70000002370B5064D0400F9
:104B800008002B60FDF7A6FE431C03D12B68002B09
:104B900000D0236070BDC046A406002070B504009C
:104BA000080011001A000023054D2B60FDF79CFE44
:104BB000431C03D12B68002B00D0236070BDC0467E
:104BC000A406002070B50400080011001A0000239C
:104BD000054D2B60FDF764FE431C03D12B68002BB1
:104BE00000D0236070BDC046A406002070B504004C
:104BF000080011001A000023054D2B60FDF75DFE33
:104C0000431C03D12B68002B00D0236070BDC0462D
:104C1000A4060020014B18687047C0462000002001
:104C200070B500260C4C0D4D641BA410A64209D192
:104C3000002600F06BFE0A4C0A4D641BA410A6422D
:104C400005D170BDB300EB5898470136EEE7B300CD
:104C5000EB5898470136F2E7C85B0008C85B0008CC
:104C6000CC5B0008C85B00087047704770470023A2
:104C700010B59A4200D110BDCC5CC4540133F8E7A2
:104C80007FB514001A00094B05001B680E00D86898
:104C9000074B002C01D1074B1C00074901930294DC
:104CA0002B00009600F0C2F900F0E2F9200000208D
:104CB000595B0008945B0008665B000870B505004E
:104CC0000C1E10D0043C2368002B00DAE4182800E6
:104CD00000F0EAF81D4A1368002B05D163601460E8
:104CE000280000F0E9F870BDA34208D92068211817
:104CF0008B42F3D119685B6809182160EEE71A004E
:104D00005B68002B01D0A342F9D911685018A0426A
:104D10000BD120680918501811608342E0D118683F
:104D20005B68411811605360DAE7A04202D90C2396
:104D30002B60D5E7206821188B4203D119685B6886
:104D40000918216063605460CAE7C046B0060020BD
:104D500010B5034B0100186800F026F810BDC046DE
:104D60002000002070B50F4E0D00316804000029AE
:104D700002D100F06BF930602900200000F066F9E4
:104D8000431C03D101256D42280070BD0323C51CBF
:104D90009D43A842F8D0291A200000F057F90130AD
:104DA000F2D1EFE7AC060020F7B50322CB1C93430A
:104DB000083305001F000C2B34D20C27B94233D81E
:104DC000280000F071F8374E33681C00002C2FD1FA
:104DD00039002800FFF7C6FF0400431C5FD1346888
:104DE0000094009B002B4AD1002C52D0236828004D
:104DF000E3180099019300F029F9019B834248D1FF
:104E000023682800FF1A3900FFF7ACFF013040D0BB
:104E10002368DB19236033685A68002A33D1009B6A
:104E2000336019E0002BC9DA0C232B600020FEBD93
:104E30002168C91B20D40B290AD9E2192760A34293
:104E400004D1326063681160536005E05A60F9E78D
:104E50006268A3420ED13260280000F02DF82000D5
:104E600007220B30231D9043C21A9842DFD01B1A31
:104E7000A350DCE75A60EFE723006468A6E7009CD4
:104E800063680093ADE71A005B68A342FBD100237F
:104E9000DAE70C2328002B6000F00EF8C6E7076065
:104EA000DAE7C046B006002010B50248FFF7DDFE85
:104EB00010BDC046A806002010B50248FFF7D6FE78
:104EC00010BDC046A8060020F7B50C228B5E050079
:104ED0000C001A0756D44A68002A02DC0A6C002A21
:104EE0004EDDE76A002F4BD0002280202E682A601A
:104EF0001A004001216A0240034233D0626DA38947
:104F00005B0706D56368D21A636B002B01D0236C54
:104F1000D21A00232800E76A216AB847A289431CF5
:104F200006D129681D2946D8294B0B41DB0742D4FD
:104F30000023636023692360D20405D5431C02D19A
:104F40002B68002B00D16065616B2E60002917D0A3
:104F500023004433994202D02800FFF7AFFE00231C
:104F600063630DE001232800B8470200431CC6D14B
:104F70002B68002BC3D01D2B01D0162B1AD12E600D
:104F800000201EE00E69002EFAD00F680E60BA1BDA
:104F9000019200229B0700D14A69A260019B002B6D
:104FA000EEDDA36A32001F002800019B216AB8478A
:104FB000002807DCA2894023012013431BB2A381F0
:104FC0004042FEBD019B36181B1A0193E6E7C0461E
:104FD000FEFFBFDF0B6970B505000C00002B02D18E
:104FE0000025280070BD002804D0036A002B01D1E1
:104FF000FFF726FD0C22A35E002BF1D0626ED207D4
:1050000004D49B0502D4A06DFFF72FFE28002100D9
:10501000FFF75AFF636E0500DB07E2D4A3899B0507
:10502000DFD4A06DFFF722FEDBE700000EB417B55A
:10503000054C05AB04CB01002068019300F046F855
:105040001EBC08BC03B0184720000020002370B528
:10505000064D040008002B60FDF748FC431C03D1FB
:105060002B68002B00D0236070BDC046A406002032
:10507000062010B500F08EFB0120FDF70BFC9368B5
:1050800010B5013B9360002B04DA9469A34207DB5F
:105090000A2905D01368581C10601970080010BD4B
:1050A00000F0AEFA0100F9E7F8B506000F001400B1
:1050B000D518AC4201D1002007E021783A00300039
:1050C000FFF7DDFF0134431CF3D1F8BDF0B5A1B00B
:1050D0000F0015001E000390002804D0036A002B67
:1050E00001D1FFF7ADFC7B6EDB0705D4BB899B05C7
:1050F00002D4B86DFFF7B9FDBB891B0702D53B6928
:10510000002B13D13900039800F0BCFA00280DD011
:105110007B6EDB0703D50120404221B0F0BDBB8987
:105120009B05F8D4B86DFFF7A1FDF4E7002308ACA8
:105130006361203363761033A37607962E003378AD
:10514000002B01D0252B48D1731B0593AE420BD009
:105150002A0039000398FFF7A7FF013000D1AEE025
:105160006369059A9B1863613378002B00D1A6E030
:10517000012200235242626004A954325218751C65
:105180002360E360A3601370A365594B05221800E8
:105190002978059300F01EFB6E1C00281FD12268A1
:1051A000D30604D5532304A95B18202119701307D3
:1051B00004D5532304A95B182B2119702B782A2BB3
:1051C00016D02E0000210A20E3683278751C303A90
:1051D000092A50D9002911D117E00136AFE7059B04
:1051E0002268C01A01238340134335002360CCE7B3
:1051F000079B191D1B680791002B01DB0B9304E033
:105200005B42E36002231343236033782E2B0CD1DF
:1052100073782A2B34D1079B02361A1D1B6807921C
:10522000002B01DA01235B420993324D032228004F
:10523000317800F0CFFA002806D04023401B83408D
:105240002268013613432360317806222A48751CF0
:10525000217600F0BFFA002840D0284B002B22D145
:105260000722079B07339343083307936369049A24
:105270009B18636162E743432E0001219B18A4E75A
:1052800000230A201900013663603278751C303A19
:10529000092A03D9002BC8D00991C6E741432E0043
:1052A00001238918F1E707AA009221003A00144B64
:1052B000039800E000BF0490049B0133D6D17B6EBD
:1052C000DB0705D4BB899B0502D4B86DFFF7CEFC84
:1052D000BB895B0600D51EE70D981EE707AA009262
:1052E00021003A00064B039800F07CF8E3E7C04643
:1052F000955B00089B5B00089F5B000800000000B6
:10530000A9500008F7B5160001938A680B690C00D4
:105310000090934200DA1300220033604332127887
:10532000002A01D00133336023689B0602D533681D
:10533000023333602268062315001D401A4227D02D
:10534000230043331B785A1E93412268920630D4BF
:10535000220001990098089D4332A847013025D0CA
:105360000622236800251340042B05D13368E56825
:10537000ED1AEB43DB171D40A3682269934201DD60
:105380009B1AED180026B54220D1002010E001350F
:10539000E36832689B1AAB42D2DD220001230199F7
:1053A0000098089F1932B8470130F0D101204042DF
:1053B000FEBD3020E1184331087021005A1C4531F0
:1053C0000978A218433202331170C1E72200012389
:1053D00001990098089F1A32B8470130E6D001368B
:1053E000D1E70000F0B58BB006920A004332079374
:1053F000059003920A7E0C00109B782A09D8622A35
:105400000BD8002A00D1BCE07B490491582A00D176
:1054100090E0250042352A7022E0100063381528FC
:10542000F7D8FAF77BFE16001F00F6FFF6FFF6FF2F
:10543000F6FF1F00F6FFF6FFF6FFF6FFA1003600AD
:105440008000F6FFF6FFB200F6FF3600F6FFF6FF2B
:10545000840025001A684235111D196013682B70ED
:105460000123A0E018680968021D0D060BD5066827
:105470001A60002E03DA2D23039A764213705E4BD6
:105480000A27049318E006681A604906F1D536B277
:10549000EFE70868196840C9050602D4400600D540
:1054A000B6B21960544B0A2704936F2A00D1023F09
:1054B0002300002243331A706368A360002B03DBD0
:1054C000042122688A432260002E02D1039D002B12
:1054D0000CD0039D30003900FAF7B0FE049B013D6B
:1054E0005B5C2B70330006009F42F3D9082F09D173
:1054F0002368DB0706D5626823699A4202DC302301
:10550000013D2B70039B5B1B2361079B21000093D4
:105510000598069B09AAFFF7F5FE013048D1012046
:1055200040420BB0F0BD202209680A432260782275
:1055300032490491210045310A701968226840C936
:10554000100602D4500600D5B6B21960D30702D5B2
:10555000202313432360002E01D01027A8E7202228
:10556000236893432360F8E71A680D68101D4969A2
:10557000186013682E0601D5196002E06D06FBD590
:1055800019800023039D2361BFE71A68111D19606C
:10559000156800212800626800F01CF9002801D07D
:1055A000401B6060636823610023039A1370ACE7BB
:1055B0002A00236906990598079DA8470130AED0B7
:1055C00023689B0715D4099BE0689842A9DA180064
:1055D000A7E72200012306990598079E1932B047D4
:1055E00001309CD00135E368099A9B1AAB42F0DC8C
:1055F000E9E70025F7E7C046A65B0008B75B0008AF
:10560000F8B506000D001400002804D0036A002B32
:1056100001D1FFF715FAA369A360A3891B0702D57F
:105620002369002B09D12100300000F02BF800285D
:1056300003D001256D422800F8BD23692068EFB230
:10564000C01A6369EDB2834205DC21003000FFF728
:10565000C1FC0028EDD1A3680130013BA3602368A1
:105660005A1C22601F706369834204D0A389DB0740
:10567000E1D50A2DDFD121003000FFF7ABFC002877
:10568000D9D0D6E72D4B70B5050018680C0000285E
:1056900004D0036A002B01D1FFF7D2F90C23E25E9C
:1056A000130723D4D30607D409232B6040230120FA
:1056B0001343A38140423AE0520713D5616B00299E
:1056C00008D023004433994202D02800FFF7F6FAAD
:1056D000002363632422A3899343A381002363608F
:1056E000236923600823A2891343A3812369002B24
:1056F0000BD1A0218022A389890092000B40934204
:1057000003D02100280000F09BF80C23E25E012169
:1057100013000B400A420BD00023A36063695B4275
:10572000A36100202369834201D11306BED470BD5A
:10573000910700D46369A360F3E7C046200000200E
:1057400070B504000D001F2904D916230360012041
:10575000404270BDC36B002B04D08A009B181A68AE
:10576000002A08D1200000F031F82A0001002000B2
:1057700000F01AF8EDE7012A09D0511C03D11623D5
:1057800003600120E5E70021280019609047002010
:10579000DFE7000010B5034B01001868FFF7D0FFEA
:1057A00010BDC04620000020002370B5064D040047
:1057B000080011002B60FDF765F8431C03D12B682E
:1057C000002B00D0236070BDA406002010B5FDF7AB
:1057D00057F810BDC9B28218904201D1002070471D
:1057E00003788B42FBD00130F6E7000070B50E0065
:1057F0001D000E23C95E140096B000290CDAB28990
:105800008023110019401A4214D18023DB000020AC
:105810002960236016B070BD6A4600F053F8002876
:10582000EDDBF02301991B021940044BC9184B42D0
:105830005941EAE700214023E9E7C04600E0FFFFC5
:10584000F0B502268B8905000C0085B0334207D0E5
:1058500023004733236023610123636105B0F0BD5A
:1058600003AB02AAFFF7C2FF029F01903900280094
:10587000FFF79AFA002808D10C22A35E9A05EDD40E
:10588000032293431E43A681E2E78023A28920607E
:105890001343A381039B20616761002B0CD0280078
:1058A0000E23E15E00F020F8002805D00323A28932
:1058B0009A43023B1343A381A389019A1343A38113
:1058C000CCE70000002370B5064D0400080011006D
:1058D0002B60FDF702F8431C03D12B68002B00D08E
:1058E000236070BDA4060020002370B5064D04009F
:1058F00008002B60FCF7F6FF431C03D12B68002B3C
:1059000000D0236070BDC046A4060020F8B5C04694
:10591000F8BC08BC9E467047F8B5C046F8BC08BC49
:045920009E467047E8
:10592400E3EE7AE1D2D4E0C89ABDF6B2EAA86F9F5A
:105934007C960A8E11868B7E7177BC70686A6F6460
:10594400CC5E7A597454B74F3D4B04470843453FE6
:10595400B83B5D3833353732652FBC2C392ADB2709
:105964009E2581238321A21FDB1D2E1C991A1B193E
:10597400B2175D161C15ED13CE12C011C110D00F55
:10598400ED0E160E4C0D8D0CD80B2E0B8D0AF60950
:105994006609DF08600800FC0000300000DA00003F
:1059A4007A00003600006E0000EE0000380000FEB1
:1059B40000007E0000BE0000E60000CC0000F20003
:1059C40000CE00008E000E01C00201000C01A006F2
:1059D40001A00201600600E00E00E00201800E0159
:1059E400E00601E00A01E00E00600C00C00E012098
:1059F4000C00E00800E0E0001C200010C0001A6069
:105A0400001A20001660000EE0000E200018E000CE
:105A14001E60001EA0001EE00006C0000CE0001284
:105A2400C0000E80000E1000000100000000020003
:105A34000020000200CEBDCC8C765E6CBCEEA000D3
:105A440016E0001480001E60000E20001200000CFE
:105A5400001800006000C000000C00DE00A6000C6E
:105A6400A6DECE820CCE0024A800160A1E3E0E1E10
:105A74001E000222A0C43CE8F3F4EA85D4AEBD566D
:105A84006CFCCEC6CD6C080C070D090B060A130F6F
:105A9400140E1210000002020301030100050D1F81
:105AA4003F0007040700010101000000000000019D
:105AB40002030400000000000000000102030406C9
:105AC4000708090102030405060708090A0B0C0D5F
